:100000000C9462000C948A000C948A000C948A0070
:100010000C948A000C948A000C948A000C948A0038
:100020000C948A000C948A000C948A000C948A0028
:100030000C948A000C948A000C948A000C948A0018
:100040000C9402010C948A000C948A000C948A008F
:100050000C948A000C948A000C948A000C948A00F8
:100060000C948A000C948A000000000024002700F1
:100070002A0000000000250028002B0000000000DE
:1000800023002600290004040404040404040202DA
:100090000202020203030303030301020408102007
:1000A0004080010204081020010204081020000012
:1000B0000007000201000003040600000000000029
:1000C00000009C0011241FBECFEFD4E0DEBFCDBFE7
:1000D00011E0A0E0B1E0E4E7F4E002C005900D9289
:1000E000A030B107D9F711E0A0E0B1E001C01D9246
:1000F000AC30B107E1F710E0C4ECD0E004C02297C7
:10010000FE010E943402C23CD107C9F70E94FB00E5
:100110000C9438020C9400001F93FC01862F122FC0
:1001200060834183228361E00E94C501812F61E0E9
:100130000E94C5011F91089580E091E065E046E0CE
:1001400027E00E948C0008958EE061E00E94C501C6
:100150008FE061E00E94C50180E161E00E94C5017D
:1001600082E161E00E94C50181E161E00E94C50178
:100170008FE060E00E94E50181E161E00E94E5011D
:1001800008950F931F93CF93DF938C0180E160E07C
:100190000E94E501C0E0D0E0F801EC0FFD1F8EE009
:1001A00062E140E020810E9484012196C430D105A3
:1001B00099F780E161E00E94E501DF91CF911F9105
:1001C0000F910895DF93CF9300D000D0CDB7DEB765
:1001D00083E9898381EC8A8380EC8B838FE88C832D
:1001E000CE0101960E94C1000F900F900F900F90CA
:1001F000CF91DF9108950E944A010E94A4000E94BD
:10020000E200FDCF1F920F920FB60F9211242F9391
:100210003F938F939F93AF93BF93809107019091EA
:100220000801A0910901B0910A0130910B010196DA
:10023000A11DB11D232F2D5F2D3720F02D570196C5
:10024000A11DB11D20930B0180930701909308011C
:10025000A0930901B0930A018091030190910401D8
:10026000A0910501B09106010196A11DB11D8093D9
:10027000030190930401A0930501B0930601BF917F
:10028000AF919F918F913F912F910F900FBE0F9043
:100290001F901895789484B5826084BD84B5816080
:1002A00084BD85B5826085BD85B5816085BDEEE67E
:1002B000F0E0808181608083E1E8F0E0808182600D
:1002C0008083808181608083E0E8F0E080818160CC
:1002D0008083E1EBF0E0808184608083E0EBF0E0FC
:1002E000808181608083EAE7F0E0808184608083A0
:1002F000808182608083808181608083808180684A
:1003000080831092C1000895BF92CF92DF92EF9246
:10031000FF920F931F93CF93DF93E82EF62EB42E08
:10032000C0E0D0E0022F10E087E0C82ED12CBB2027
:1003300041F4B8010C2E02C0759567950A94E2F756
:100340000AC0B6016C1B7D0BC80102C0959587954C
:100350006A95E2F7BC0161708E2D0E94E5018F2D38
:1003600061E00E94E5018F2D60E00E94E501219689
:10037000C830D105E1F6DF91CF911F910F91FF9029
:10038000EF90DF90CF90BF900895282F30E0C90103
:1003900086569F4FFC0194912A573F4FF901849153
:1003A000882391F0E82FF0E0EE0FFF1FE859FF4F90
:1003B000A591B491662329F48C91909589238C930F
:1003C00008958C91892B8C930895482F50E0CA0191
:1003D00082559F4FFC012491CA0186569F4FFC0114
:1003E00094914A575F4FFA0134913323D1F122237C
:1003F00031F1233021F4809180008F7705C02430C3
:1004000031F4809180008F7D8093800018C021306E
:1004100019F484B58F7704C0223021F484B58F7D20
:1004200084BD0DC0263021F48091B0008F7705C0C7
:10043000273029F48091B0008F7D8093B000E32FA6
:10044000F0E0EE0FFF1FEE58FF4FA591B491662329
:1004500029F48C91909589238C9308958C91892B04
:100460008C930895EE0FFF1F0590F491E02D0994F1
:04047000F894FFCF2E
:00000001FF
